{
  "_format": "hh-sol-artifact-1",
  "contractName": "EquipmentLog",
  "sourceName": "contracts/EquipmentLog.sol",
  "abi": [
    {
      "anonymous": false,
      "inputs": [
        {
          "indexed": false,
          "internalType": "string",
          "name": "action",
          "type": "string"
        },
        {
          "indexed": false,
          "internalType": "string",
          "name": "deviceName",
          "type": "string"
        },
        {
          "indexed": false,
          "internalType": "address",
          "name": "user",
          "type": "address"
        },
        {
          "indexed": false,
          "internalType": "uint256",
          "name": "timestamp",
          "type": "uint256"
        }
      ],
      "name": "LogCreated",
      "type": "event"
    },
    {
      "inputs": [
        {
          "internalType": "string",
          "name": "_action",
          "type": "string"
        },
        {
          "internalType": "string",
          "name": "_deviceName",
          "type": "string"
        }
      ],
      "name": "addLog",
      "outputs": [],
      "stateMutability": "nonpayable",
      "type": "function"
    },
    {
      "inputs": [],
      "name": "getLogs",
      "outputs": [
        {
          "components": [
            {
              "internalType": "string",
              "name": "action",
              "type": "string"
            },
            {
              "internalType": "string",
              "name": "deviceName",
              "type": "string"
            },
            {
              "internalType": "address",
              "name": "user",
              "type": "address"
            },
            {
              "internalType": "uint256",
              "name": "timestamp",
              "type": "uint256"
            }
          ],
          "internalType": "struct EquipmentLog.Log[]",
          "name": "",
          "type": "tuple[]"
        }
      ],
      "stateMutability": "view",
      "type": "function"
    },
    {
      "inputs": [
        {
          "internalType": "uint256",
          "name": "",
          "type": "uint256"
        }
      ],
      "name": "logs",
      "outputs": [
        {
          "internalType": "string",
          "name": "action",
          "type": "string"
        },
        {
          "internalType": "string",
          "name": "deviceName",
          "type": "string"
        },
        {
          "internalType": "address",
          "name": "user",
          "type": "address"
        },
        {
          "internalType": "uint256",
          "name": "timestamp",
          "type": "uint256"
        }
      ],
      "stateMutability": "view",
      "type": "function"
    }
  ],
  "bytecode": "0x6080604052348015600f57600080fd5b50610d498061001f6000396000f3fe608060405234801561001057600080fd5b50600436106100415760003560e01c8063a273079a14610046578063e79899bd14610062578063fe290ccb14610095575b600080fd5b610060600480360381019061005b9190610682565b6100b3565b005b61007c60048036038101906100779190610730565b6101d5565b60405161008c949392919061082c565b60405180910390f35b61009d610345565b6040516100aa9190610a13565b60405180910390f35b600060405180608001604052808481526020018381526020013373ffffffffffffffffffffffffffffffffffffffff168152602001428152509080600181540180825580915050600190039060005260206000209060040201600090919091909150600082015181600001908161012a9190610c41565b5060208201518160010190816101409190610c41565b5060408201518160020160006101000a81548173ffffffffffffffffffffffffffffffffffffffff021916908373ffffffffffffffffffffffffffffffffffffffff1602179055506060820151816003015550507f74d5ad8a99003cca54021ecde636cfde1294a7900831a17eadf76a74436d1b1a828233426040516101c9949392919061082c565b60405180910390a15050565b600081815481106101e557600080fd5b906000526020600020906004020160009150905080600001805461020890610a64565b80601f016020809104026020016040519081016040528092919081815260200182805461023490610a64565b80156102815780601f1061025657610100808354040283529160200191610281565b820191906000526020600020905b81548152906001019060200180831161026457829003601f168201915b50505050509080600101805461029690610a64565b80601f01602080910402602001604051908101604052809291908181526020018280546102c290610a64565b801561030f5780601f106102e45761010080835404028352916020019161030f565b820191906000526020600020905b8154815290600101906020018083116102f257829003601f168201915b5050505050908060020160009054906101000a900473ffffffffffffffffffffffffffffffffffffffff16908060030154905084565b60606000805480602002602001604051908101604052809291908181526020016000905b8282101561051f578382906000526020600020906004020160405180608001604052908160008201805461039c90610a64565b80601f01602080910402602001604051908101604052809291908181526020018280546103c890610a64565b80156104155780601f106103ea57610100808354040283529160200191610415565b820191906000526020600020905b8154815290600101906020018083116103f857829003601f168201915b5050505050815260200160018201805461042e90610a64565b80601f016020809104026020016040519081016040528092919081815260200182805461045a90610a64565b80156104a75780601f1061047c576101008083540402835291602001916104a7565b820191906000526020600020905b81548152906001019060200180831161048a57829003601f168201915b505050505081526020016002820160009054906101000a900473ffffffffffffffffffffffffffffffffffffffff1673ffffffffffffffffffffffffffffffffffffffff1673ffffffffffffffffffffffffffffffffffffffff16815260200160038201548152505081526020019060010190610369565b50505050905090565b6000604051905090565b600080fd5b600080fd5b600080fd5b600080fd5b6000601f19601f8301169050919050565b7f4e487b7100000000000000000000000000000000000000000000000000000000600052604160045260246000fd5b61058f82610546565b810181811067ffffffffffffffff821117156105ae576105ad610557565b5b80604052505050565b60006105c1610528565b90506105cd8282610586565b919050565b600067ffffffffffffffff8211156105ed576105ec610557565b5b6105f682610546565b9050602081019050919050565b82818337600083830152505050565b6000610625610620846105d2565b6105b7565b90508281526020810184848401111561064157610640610541565b5b61064c848285610603565b509392505050565b600082601f8301126106695761066861053c565b5b8135610679848260208601610612565b91505092915050565b6000806040838503121561069957610698610532565b5b600083013567ffffffffffffffff8111156106b7576106b6610537565b5b6106c385828601610654565b925050602083013567ffffffffffffffff8111156106e4576106e3610537565b5b6106f085828601610654565b9150509250929050565b6000819050919050565b61070d816106fa565b811461071857600080fd5b50565b60008135905061072a81610704565b92915050565b60006020828403121561074657610745610532565b5b60006107548482850161071b565b91505092915050565b600081519050919050565b600082825260208201905092915050565b60005b8381101561079757808201518184015260208101905061077c565b60008484015250505050565b60006107ae8261075d565b6107b88185610768565b93506107c8818560208601610779565b6107d181610546565b840191505092915050565b600073ffffffffffffffffffffffffffffffffffffffff82169050919050565b6000610807826107dc565b9050919050565b610817816107fc565b82525050565b610826816106fa565b82525050565b6000608082019050818103600083015261084681876107a3565b9050818103602083015261085a81866107a3565b9050610869604083018561080e565b610876606083018461081d565b95945050505050565b600081519050919050565b600082825260208201905092915050565b6000819050602082019050919050565b600082825260208201905092915050565b60006108c78261075d565b6108d181856108ab565b93506108e1818560208601610779565b6108ea81610546565b840191505092915050565b6108fe816107fc565b82525050565b61090d816106fa565b82525050565b6000608083016000830151848203600086015261093082826108bc565b9150506020830151848203602086015261094a82826108bc565b915050604083015161095f60408601826108f5565b5060608301516109726060860182610904565b508091505092915050565b60006109898383610913565b905092915050565b6000602082019050919050565b60006109a98261087f565b6109b3818561088a565b9350836020820285016109c58561089b565b8060005b85811015610a0157848403895281516109e2858261097d565b94506109ed83610991565b925060208a019950506001810190506109c9565b50829750879550505050505092915050565b60006020820190508181036000830152610a2d818461099e565b905092915050565b7f4e487b7100000000000000000000000000000000000000000000000000000000600052602260045260246000fd5b60006002820490506001821680610a7c57607f821691505b602082108103610a8f57610a8e610a35565b5b50919050565b60008190508160005260206000209050919050565b60006020601f8301049050919050565b600082821b905092915050565b600060088302610af77fffffffffffffffffffffffffffffffffffffffffffffffffffffffffffffffff82610aba565b610b018683610aba565b95508019841693508086168417925050509392505050565b6000819050919050565b6000610b3e610b39610b34846106fa565b610b19565b6106fa565b9050919050565b6000819050919050565b610b5883610b23565b610b6c610b6482610b45565b848454610ac7565b825550505050565b600090565b610b81610b74565b610b8c818484610b4f565b505050565b5b81811015610bb057610ba5600082610b79565b600181019050610b92565b5050565b601f821115610bf557610bc681610a95565b610bcf84610aaa565b81016020851015610bde578190505b610bf2610bea85610aaa565b830182610b91565b50505b505050565b600082821c905092915050565b6000610c1860001984600802610bfa565b1980831691505092915050565b6000610c318383610c07565b9150826002028217905092915050565b610c4a8261075d565b67ffffffffffffffff811115610c6357610c62610557565b5b610c6d8254610a64565b610c78828285610bb4565b600060209050601f831160018114610cab5760008415610c99578287015190505b610ca38582610c25565b865550610d0b565b601f198416610cb986610a95565b60005b82811015610ce157848901518255600182019150602085019450602081019050610cbc565b86831015610cfe5784890151610cfa601f891682610c07565b8355505b6001600288020188555050505b50505050505056fea264697066735822122068290a294108fa96093e1b467e693a7e8e50c83ca71f5f9dfc1b3ad2c553a61a64736f6c634300081b0033",
  "linkReferences": {},
  "deployedLinkReferences": {}
}